:020000041000EA
:1000000000200008EB0000100D0000004D01001062
:1000100000000000000000000000000000000000E0
:100020000000000000000000000000004901001076
:10003000000000000000000049010010490100100C
:100040004901001049010010490100104901001048
:100050004901001049010010490100104901001038
:100060004901001049010010490100104901001028
:100070004901001049010010490100104901001018
:1000800010B5064C2378002B07D1054B002B02D06E
:10009000044800E000BF0123237010BD18050008CC
:1000A00000000000300F0010044B10B5002B03D0EF
:1000B0000349044800E000BF10BDC0460000000036
:1000C0001C050008300F00100230800803D00130FA
:1000D0000238FCD1C046C0467047EFF3108072B6BC
:1000E000704780F3108870477047FFF7FDFF72B6C6
:1000F0000F4C104DAC4209DA21686268A368043BDA
:1001000002DBC858D050FAE70C34F3E70A490B4A2F
:100110000020521A02DD043A8850FCDC08480949E4
:100120000860BFF34F8F00F04FFD00F077FCFEE753
:10013000340F00104C0F00101805000820070008AD
:100140000000000808ED00E0FEE7FEE700B504202F
:100150007146084202D0EFF3098001E0EFF3088016
:10016000043000F0E1FAFEE7014B18607047C0462A
:100170001C070008044B1B681A00AC3212881B6A6B
:100180005043C0187047C0461C0700081D4B9842DA
:100190000FD010D840282FD005D8002830D01028F4
:1001A00028D019481EE0802828D080235B00984280
:1001B000F7D1144816E0154B984214D008D8A02364
:1001C0001B0698421CD0124B9842EAD1A0200BE0AB
:1001D000104B98420AD0104B984209D00F4B9842CE
:1001E000DFD10F487047A420C003FBE70D48F9E7B3
:1001F0000D48F7E70D48F5E70D48F3E70D48F1E73F
:100200000020EFE706005200FF005200010000F05E
:10021000090000A0040000F0050000F0030000F059
:100220000100520002005200030052000100500081
:10023000020050000500520010B50020FFF79AFFA1
:100240000A4B1C682300B0331B68C0180368002BDE
:100250000ADB074B1868FFF799FF012263689A6071
:100260009A68002AFCD110BD0248FCE71C07000870
:100270003405000802005000064B1B68B0331B68B1
:10028000C3181B68002B03DA89B241600020704755
:100290000148FCE71C07000801008A000368002BE6
:1002A00004DA89B2C2608160002070470048FCE730
:1002B00001008A00064B1B68B0331B68C3181B681B
:1002C000002B03DAC36800200B6070470148FCE78D
:1002D0001C07000801008A00024B1A68002A00D19E
:1002E0001860704748050008F0B52C246043124C94
:1002F0001F0024681E0A2018FF24274034400F4E98
:100300001B0C356807602E6A44608360AC352D880D
:1003100080346F4364013419BF191E0433430761ED
:100320004461A36000238361059BC2610162002BCD
:1003300001D01B888381F0BD480500081C07000818
:10034000F0B5836885B002AD2B80154B02681B6841
:10035000066A9B8E476A9B186B8043680095826A89
:10036000C16A040003930369C068FFF7BDFF002161
:100370003B000A0000913000FFF7B6FF216B280018
:1003800000F086F90022AB5E002B06DB1F22134033
:100390001E3A9A401300034A136005B0F0BDC046F0
:1003A0001C07000800E100E0F7B52C25134C68435A
:1003B000266869433418256901937118002D19D0F6
:1003C0008869002818D12E68002E15DA6768012484
:1003D00026004B689E40B44613689EB263461B04D9
:1003E0001E431660EA608C61BC40019BA4B24B6264
:1003F000AC60FEBD0248FCE70248FAE74805000889
:1004000004028A0007028A0073B5002642690400CC
:10041000D56801962B0CB34221D01B0413601368DE
:10042000194B00691B68B0331B68C3181B68B342C3
:1004300015DA01A9FFF73EFFB0420CD10198E2693D
:1004400003681E0CDBB29A4205D9226A9B009B58B6
:10045000002B00D0984731002069FFF70DFFADB2A7
:10046000002D09D063691D6000251B68636AAB42DB
:1004700005D098476562A56163691B6873BDA36A6F
:10048000002BF8D09847F6E71C0700082C2310B57E
:100490004343034A1068C018FFF7B6FF10BDC046BB
:1004A00048050008F8B5194B0F001B681A002E32DA
:1004B0001278824227D9002925D01F250A681540C5
:1004C00021D11900AC310C88114E60431C6AD2084E
:1004D000041929007868346000F09AFC2900200093
:1004E000FFF7CAFE3A0029003068FFF7D7FE041E66
:1004F00007D101003068FFF7BFFE03002000002B8A
:1005000000D00448F8BD0448FCE7C0461C070008BA
:100510004C05000801018A0003018A0010B5002A79
:100520000DD1002914D10B4B1A681300AC331B8872
:100530005843136AC018084B1860080010BD002902
:1005400006D0064B196019005A60FFF7ABFFF5E7BC
:100550000348F3E71C0700084C050008E004000806
:1005600003018A00F7B5184F04003B680191DE686B
:100570003368834226D90025A94202D1FFF7ADFD99
:10058000050038680368002B1ADA1F220123224075
:10059000934064097268A4001419226813420DD0B4
:1005A0009A43226000240021FFF766FE019B002B86
:1005B00002D12800FFF795FD2000FEBD034CF2E7B5
:1005C000034CF3E7034CF7E74C05000802018800F1
:1005D0000301880004018A000A4B1B68DB681A6863
:1005E00082420DD959681F23420918401E3B83409F
:1005F000920050581840431E9841034BC018704752
:100600000248FCE74C0500080001880004018A004C
:10061000144B30B51A680724130028331B781F2B9E
:1006200015D883081D00A5432C1E0FD1033420408C
:10063000A040814012689B002032D3180A00FF219D
:1006400081401C68624011406140196030BD8023C8
:1006500020401B06184380239B011268C91889009B
:100660008850F3E71C070008064B9A680300064809
:1006700010339B00824202D1985899507047034A28
:10068000D058FBE700ED00E000000008000000107B
:10069000F8B506000D0000283AD00023C05E0028FF
:1006A00028DB7188FFF7B4FF0024FF22032794465C
:1006B0000023F05E716883B21F40FF006646BA40B7
:1006C00089013140D243B940002815DB114E83081F
:1006D0009B009B19C026B6009F593A40114399517F
:1006E0000D4B9A680D4B9A4202D12900FFF7BCFFCF
:1006F0002000F8BD0A4CD8E70F263340083B064ED1
:100700009B089B009B19DE6932401143D961E7E7E2
:10071000034CEDE700E100E000ED00E00000000820
:1007200001005600FEE7000002680A4B10B51A608F
:1007300042685A6082689A60C268DA6002691A6127
:1007400042695A6182699A61C269DA61FFF7EAFF18
:1007500010BDC046F8040008B0235B055A7821207C
:10076000002A01D05878C0B27047B0235B059A893F
:10077000002A02D0988980B2704780204000FBE7B1
:100780007FB5274B86000D00F458042901D00129BC
:1007900027D100200FE0A3682B420BD1E36829008A
:1007A0001A685B6802920193039302A82368984732
:1007B0001C4B1C606469002C0BD01B4B9842EAD187
:1007C000012DE8D1174B18481A68184B9A5104B0FC
:1007D00070BD012DFBD1144B9842F3D0134B9C51AB
:1007E000F5E7022906D10F4B1B68181EEFD01C69D4
:1007F00003E01C006369002BFBD10020002CE6D035
:10080000A3682B4209D1E36829001A685B68029249
:100810000193039302A8236898472469EEE7C04632
:100820008805000884050008FF00420070050008E4
:10083000F2220E4BD2011B68DB689A580260F0224C
:10084000D2019A5842600A4A9A588260094A9A58D4
:10085000C260094A9A580261084A9A584261084A95
:100860009A588261074A9B58C36170471C07000869
:1008700004780000087800000C7800001078000070
:100880001478000018780000F0220E4B41681B68B5
:10089000D201DB68995081680B4A9950C1680B4AB4
:1008A000995001690A4A995041690A4A99508169E7
:1008B000094A9950C169094A99500168E83299502A
:1008C0007047C0461C070008047800000878000044
:1008D0000C780000107800001478000018780000F0
:1008E000F7B53F4D07006B68002B4AD1FFF7F5FBCA
:1008F0006B680190002B56D13A4E33681A00413292
:100900001278002A07D09B68E0331B68DB0602D50B
:100910003548FFF78DFFFFF728FF80235B009842E3
:1009200046D1380000F088FA002433681A004132BA
:100930001278002A17D0002815D09B68E0331B6876
:10094000DB0610D5FFF708FF274B212808D03268B7
:100950001300AC33198807234B43126A9B18DB68DA
:100960001800FFF791FF0198FFF7BBFB002C0ED199
:100970006B68002B03D008210120FFF701FF200046
:10098000FEBD01210800FFF7FBFE041EAED06B6820
:10099000002B03D002210120FFF7F2FE134B9C42F3
:1009A000EDD0134CEBE704210120FFF7E9FEA3E7AC
:1009B00032681300B0331B68126A9B181B68002B47
:1009C0000BDB04230B4A11690B431361012F02D087
:1009D00030BF0020A8E720BFFBE70020034CA4E7BE
:1009E000880500081C0700085005000805004200A3
:1009F000FF00420000ED00E0C022802006495200C6
:100A00008B58C0059B009B0803438B50802388585C
:100A10001B0603438B5070470000264010B562B69A
:100A2000034800F043F90020FFF75AFFFBE7C046F8
:100A30000020001010B50020FFF728FD10BD704702
:100A4000F8B5E0234E4C9B00E2580F23D02107203D
:100A50001A4093001B1989005958014065D0042998
:100A600059D04848002A65D1B223B1220321DB00C6
:100A7000D200E558A358A6581B0F360F0B400E4264
:100A800004D0A258120F0A40012A01D1EA0701D46A
:100A9000032B11D1B0233C4ADB00E658A158E5589E
:100AA000C904C90C00F028F9B3039B0B5843E901B2
:100AB000C90F013100F020F9E0239B00E358334ACD
:100AC0009B069B0FD840324B1860324BD458D158FC
:100AD000240A090E013100F00FF92F4BE1B2186022
:100AE000013100F009F92D4B040018602C4B2D4901
:100AF00018602D4BC01800F0FFF8FA212B4B89002D
:100B000018702B4BE01800F0F7F82A4B18602A4BAE
:100B1000C0031860F8BDC0211F208900595801404A
:100B2000112904D1802000029CE724489AE7FA208A
:100B3000C00197E7013A012ABED80327204A9E58F0
:100B4000204A99589D582D0F3D4204D09D582D0F95
:100B50003D40012D01D1F50703D48900890F0329F8
:100B6000AAD19E5899589D587F2333401F26090AC1
:100B70003140584300F0C0F8290C31409AE7C04694
:100B80000000264000366E01840500000000204071
:100B90008400000808100000880000088000000899
:100BA0009000000840420F003F420F0098000008EC
:100BB000E7030000940000088C00000800127A008F
:100BC0003C060000FC05000010B51D48FFF7CCFAFC
:100BD000B022E02130201B4CD200A35889005B00DA
:100BE0005B08A35063588343635080235B04A35086
:100BF000154B164AE250A02204339201E250FF2224
:100C0000134BE250FFF7F8FEC02201215200A35817
:100C10008B43A350FFF713FFFFF712FF0D4A80210C
:100C20000320FFF77BFC0C48FFF756FB0B4B1B68C0
:100C30004D331B78002B02D00948FFF781FB10BD14
:100C4000480E00100000264084050000010002004C
:100C50008C050000E80400089C0500081C0700083B
:100C6000FC0E00109023034A5B01D0580323184068
:100C70007047C0460000204010B59024FFF72DFAC1
:100C8000074B64011A5907491140074A0A431A5190
:100C9000102259681142FCD0FFF723FA10BDC0465C
:100CA00000002040FCFF00000100FA05F8B5902587
:100CB0000E4C6D010700FFF710FA63590600DB4385
:100CC0009B0701D1FFF7D8FF80239B00E7506359B2
:100CD000074A1A40074B13436351102362681A42B4
:100CE000FCD03000FFF7FDF9F8BDC0460000204001
:100CF000FCFF00000300FA05002243088B4274D376
:100D000003098B425FD3030A8B4244D3030B8B420C
:100D100028D3030C8B420DD3FF22090212BA030C15
:100D20008B4202D31212090265D0030B8B4219D3F6
:100D300000E0090AC30B8B4201D3CB03C01A524116
:100D4000830B8B4201D38B03C01A5241430B8B425E
:100D500001D34B03C01A5241030B8B4201D30B0347
:100D6000C01A5241C30A8B4201D3CB02C01A52416E
:100D7000830A8B4201D38B02C01A5241430A8B4231
:100D800001D34B02C01A5241030A8B4201D30B021A
:100D9000C01A5241CDD2C3098B4201D3CB01C01A34
:100DA000524183098B4201D38B01C01A524143093E
:100DB0008B4201D34B01C01A524103098B4201D32C
:100DC0000B01C01A5241C3088B4201D3CB00C01A99
:100DD000524183088B4201D38B00C01A5241430811
:100DE0008B4201D34B00C01A5241411A00D2014636
:100DF000524110467047FFE701B5002000F006F8A9
:100E000002BDC0460029F7D076E770477047C0465C
:100E100003001218934200D1704719700133F9E7AB
:100E2000F8B5C046F8BC08BC9E467047F8B5C04649
:100E3000F8BC08BC9E46704701B40248844601BC19
:100E4000604700BF65020008000020400000244009
:100E5000000000400000000000002340000030407F
:100E60000000314000009F40000022400000104080
:100E700020202020201010101D1D8000170075005C
:100E8000FF03060206360410200000007FC00000A9
:100E900000040000000000000019324B647D008057
:100EA0004000080B100000000000FF012002001F9E
:100EB00000800004FF081018001000140018001C27
:100EC0004044484C5000000008100000080000009A
:100ED00004000000041000000012000004210000C3
:100EE000002100000016000040114002C41300134E
:100EF0008013A013200000001C000000030000006D
:100F00000100000001000000000000000503600077
:100F100004000000010000000000000001000000CB
:100F20000604600008000000FC060008350A0010F6
:100F30000000000000000010000000088000000019
:100F4000540F00108000000860040000180500081D
:100F50000802000000093D0000127A0000093D006F
:100F60000000D00700093D00A00F000004000000B1
:100F7000A90000108100001080B230B5C00020D060
:100F8000104B07221C682300AC331B885A43236A8A
:100F9000D31819680029FCDA3E210B4B062519608D
:100FA0000A4B0B491960A3210A4BC9005D500A493D
:100FB00058505858206A1218002050605A58002A79
:100FC000FCDA30BD1C070008040126400801264059
:100FD0001E1F0000000026401C05000010B54378CD
:100FE000FF2B11D100F0BEF90400032000F09AF9A4
:100FF000C3685A68012311681943116011681942C6
:10100000FCD1200000F0BEF910BDF7B50090002023
:10101000019100F087F93F4D06002B681A004C3310
:10102000B03214681B780419002B5AD000F0A2F9D2
:10103000070003281BD000F095F9374A374B05000D
:10104000D358002B3EDA364A0121300000F0A2F9D5
:10105000002837D10198FFF78FFF009B002B3ED06F
:101060002368002BFCDB00F065F904002BE0062070
:1010700000F058F92B68B0331B68C0180368002BC8
:1010800002DA284C2000FEBD002000F063F9264B58
:101090009842F6D00023254A19001268012000F07A
:1010A00039F90025A842ECD1002000F053F91E4A7E
:1010B0001F4B904203D09D42E3D00135F4E79D429F
:1010C000B9D1DEE7174C032F05D10121002000F034
:1010D00039F90028F9D1280000F054F9D2E7154C6D
:1010E000F1E700F03FF90E4A05000121300000F061
:1010F00051F9002809D1009B002B08D02368002B50
:10110000FCDB00F017F90400E5E7064CE3E7094CC7
:10111000E1E7C0461C070008000026401C0500004F
:10112000340500080500520001018800440500084C
:10113000F049020001005000F0B56B4D07242B6808
:1011400085B01A000390AC32128854431A6A5B6867
:10115000A21801920293019B1B68002BFBDA00F09E
:1011600021F92A681300AC33198807234B4321283F
:1011700000D08CE0116A5B180221D8680143D96065
:10118000D968C9072BD515001600D96801CD0836D6
:10119000F46F8C46E96F41180019FF240F6824048E
:1011A0003F02274064460068A4B2000A00062743B5
:1011B00007439020DF600B684C4F00013B40034326
:1011C0000B601368F16F5B1819680F4038431860A3
:1011D0001368EA6F9A181268F26F9B181B68424DE9
:1011E0002A681300AC33198807234B43126A9B18F3
:1011F00000225A6004233E4A11690B431361039B8A
:10120000012B49D030BF019B1B68002BFBDA00F09B
:10121000C9F8212842D1296807220B000124AC33E8
:101220001B8800205A430B6AD318DD6825421BD067
:10123000081D0D68C06F2D4E28180568DB68354005
:101240001B0C1B061B0C2B4303600B000833D86FD1
:101250000B6818180B6A0568D318DB682E401B0E44
:101260001B023343036020000B6A0221D218D368AB
:101270008B43D3601C4B1A681300AC3319880723C7
:101280004B43126A9B1800225A6005B0F0BD126AE7
:101290009B18184ADA60A2E720BFB4E70020029B3F
:1012A000FC331B698342E5D1A320134B1349144A35
:1012B000144FC0000E681D5814680F6006271F5099
:1012C0003E20106010483E371F501F58002FFCDA98
:1012D00002980E4FFC3007610E60A321C9005D50DB
:1012E00001201460C6E7C0461C070008FF00FFFF8E
:1012F00000ED00E0500500080000264008012640EF
:10130000040126401E1F00001C050000AAAAAAAA6C
:101310000000000001B40248844601BC604700BFE1
:10132000A903001001B40248844601BC604700BF15
:101330007501001001B40248844601BC604700BF3B
:101340003902001001B40248844601BC604700BF66
:101350006505001001B40248844601BC604700BF27
:10136000D905001001B40248844601BC604700BFA3
:10137000DB00001001B40248844601BC604700BF96
:10138000650C001001B40248844601BC604700BFF0
:10139000E300001001B40248844601BC604700BF6E
:1013A0009D02001001B40248844601BC604700BFA2
:1013B00059070010000000000000000000000000BD
:0C13C00000000000000000000000000021
:1020000000F80F08252300100D0000009923001090
:10201000992300109923001099230010000000005C
:1020200000000000000000000000000095230010E8
:102030009523001000000000952300109523001048
:102040009523001095230010952300109523001070
:102050009523001095230010952300109523001060
:102060009523001095230010952300109523001050
:102070009523001095230010952300109523001040
:1022E00010B5054C237833B9044B13B10448AFF350
:1022F00000800123237010BD442900080000000065
:1023000028B5001008B5034B1BB103490348AFF3D0
:10231000008008BD000000004829000828B5001012
:1023200070477047FFF7FCFF72B6144C144DAC4277
:1023300009DA21686268A368043BA2BFC858D0507C
:10234000FAE70C34F3E70F490F4A00209142BCBF73
:1023500041F8040BFAE70D480D490860BFF34F8FB1
:1023600000F082FD00F05EFDFFF7DBFF05F056FE9A
:1023700005F022F805F03EFEFEE7000034B500103F
:102380004CB50010442900084C310008002000081A
:1023900008ED00E0FEE7FEE700B5042071460842C4
:1023A00002D0EFF3098001E0EFF30880043004F07D
:1023B00087FAFEE7000000000230800803D00130F9
:1023C0000238FCD100BF00BF7047EFF3108072B637
:1023D000704780F31088704708B500F0D3F900F01B
:1023E00007F800F0B9F900F0A9F800F0EFF808BD1F
:1023F00070B54E4D2A6892F86D10012606FA01F369
:10240000032404FA01F10B40916843F08043C1F8C2
:1024100000349168B2F872208B5823F47F0323F4C0
:102420007F4343F400738B502A6892F86F3004FAAC
:1024300003F392F86C1092F86E0081400B4392F80F
:102440006D1006FA01F004FA01F101400B439168A6
:1024500043F00043C1F800349368D3F800343448A3
:1024600000F0D2FE2A6892F86D1006FA01F304FA21
:1024700001F10B4092F86C0030409168034343F047
:102480008043C1F800349368B2F8722013445A684C
:1024900022F47F0222F47F4242F4430242F49E423D
:1024A0005A602A6892F86F3004FA03F392F86C10BD
:1024B00092F86E0001FA00F0034392F86D00864036
:1024C00004FA00F00640334301F0010190680B4329
:1024D00043F00043C0F800349368D3F80034154843
:1024E00000F092FE2B689A684FF08041C2F8001409
:1024F0009968B3F870208B5843F47F438B502B6856
:1025000093F86F20944093F86C2093F86E108A40F3
:1025100014439A6844F00044C2F800449B68D3F81E
:102520000034054800F070FE70BD00BFD82F0008D1
:1025300048AA00104CAA001044AA001008B51E4B6F
:102540001B6893F83D202F2A03D99B680022C3F80B
:10255000BC2C1A4800F058FE174B1A6892F83D3010
:10256000342B09D992F86D00012383400321814067
:102570000B409268C2F8D03C114800F045FE11486B
:1025800000F042FE0C4B1A6892F83D30122B0ED927
:1025900092F86D0001238340032181400B4092F8A3
:1025A0006C1001F0010192680B43C2F8483C0648E8
:1025B00000F02AFE08BD00BFD82F000804AB0010B1
:1025C000C8AA0010FCAA001000AB001010B53F4CC8
:1025D0003F4A0021204602F07BF93E4800F014FEFD
:1025E0003D4A0121204602F073F93C4800F00CFE00
:1025F0003B4A0421204602F06BF93A4800F004FE01
:1026000004F5A064384A0021204602F061F93748F9
:1026100000F0FAFD364A0121204602F059F935480A
:1026200000F0F2FD344A0221204602F051F933480D
:1026300000F0EAFD324A0321204602F049F9314810
:1026400000F0E2FD304A0721304802F041F93048FD
:1026500000F0DAFD2F4800F0D7FDA4F500742E4AF3
:102660000421204602F034F92C4800F0CDFD2C4A1C
:102670000621204602F02CF92A4800F0C5FD2A4A1E
:102680000721204602F024F9284800F0BDFD284823
:1026900000F0BAFD274800F0B7FD274800F0B4FD70
:1026A000264800F0B1FD264800F0AEFD254800F0B8
:1026B000ABFD254800F0A8FD244800F0A5FD244806
:1026C00000F0A2FD234800F09FFD10BD0000314046
:1026D00014AC001048AC00104CAC001080AC0010E2
:1026E00008AB00103CAB0010BCAC0010F0AC00100C
:1026F000F4AC001028AD00102CAD001060AD00103F
:1027000064AD001098AD001084AC0010800631401C
:10271000B8AC001068AB0010DCAB001010AC0010BF
:10272000A4AB0010D8AB00106CAB0010A0AB001035
:1027300040AB001044AB001048AB00104CAB001095
:1027400050AB001054AB001058AB00105CAB001045
:1027500060AB001064AB0010084B332242F208015A
:102760005A5042F210015A5003F5DA030622C3F818
:1027700000231A6842F000421A607047000030409F
:10278000FEE7000070B582B09621002004F0EAF860
:1027900004F088F800283BD0012004F0C1FB0120A0
:1027A00004F0AEFA6E4A536C23F47F4343F468534B
:1027B0005364536CC3F307233A2B46D0694B1B6811
:1027C00093F83C2032B16849D1F8802322F03002DE
:1027D000C1F880231968D3F884208B5823F47F43F1
:1027E0008B50604A13681868D3F88010435823F060
:1027F0007F4343F08073435013681868D3F8801008
:10280000435823F47F434350136893F83B5026E02A
:1028100004F038F8544BD3F8803113F0010F06D18F
:10282000514AD2F80C3523F00043C2F80C354E4B18
:10283000D3F80C2542F00042C3F80C25D3F80C2540
:1028400042F00102C3F80C25A6E7536C23F00053B5
:1028500023F4685343F468535364AFE7013DDDB19B
:102860006C1E404B1B6893F83B309C42F6D23E4EA8
:1028700005F27F1456F8243023F0405343F0005300
:1028800046F82430012003F0F3FF56F8243023F0FB
:10289000004346F82430E1E70021012003F05CFB0F
:1028A000304B1B6893F83C3003B901BE2E4BD3F874
:1028B000803313F00F0F3BD02B4BD3F8882522F039
:1028C000405242F00052C3F88825D3F8802522F008
:1028D0000042C3F88025D3F88C2522F00042C3F8CB
:1028E0008C250021084603F037FB1E4B1B6893F82C
:1028F0003C3033B11C4AD2F8803323F00F03C2F8C6
:1029000080331A4D0024009423462246214628464F
:1029100002F0F8F80094234622460121284602F0EE
:10292000F1F80F4A136843F008031360104C25E0D8
:10293000002003F03FFB40F211139842BCD1094B39
:102940001B6893F83C30002BB6D0074AD2F880338E
:1029500023F00F0343F00103C2F88033ACE700BF5C
:1029600000002740D82F000800002640000031401A
:1029700040420F00012003F07BFF013C9D4B1B698F
:1029800013F0040F01D1002CF4D1002C00F01B81B6
:102990000023002B40F01981974AD2F8003523F02C
:1029A000030343F00103C2F80035944C236819680F
:1029B000D3F884208B5823F47F438B502368196805
:1029C000D3F880208B5823F07F4343F080738B50E3
:1029D00023681968D3F880208B5823F47F438B50E9
:1029E0000021012003F0B8FA236893F83C3043B18A
:1029F000814AD2F8803323F00F0343F00103C2F879
:102A000080330021084603F0A7FA0021022003F0DA
:102A1000A3FA0021032003F09FFA0021042003F011
:102A20009BFA0021052003F097FA754803F0E0FABD
:102A3000002840F0CE80734803F08AFB002840F065
:102A4000CC806E4B1B6893F83C2032B16A49D1F8B8
:102A5000802322F00F02C1F8802393F83C3033B179
:102A6000654AD2F8803323F03003C2F88033002166
:102A7000012003F071FA6449022003F0CBFB002827
:102A800040F0AF8042F21071022003F051FC0028A8
:102A900040F0AB80594B1B6893F83C20022A06D9C2
:102AA0005549D1F8882322F00F02C1F8882393F802
:102AB0003C20022A08D95049D1F8882322F030025C
:102AC00042F01002C1F8882393F83C30022B06D95B
:102AD000494AD2F8883343F00043C2F88833474B61
:102AE0001B6893F83C20032A08D94349D1F88C236A
:102AF00022F00F0242F00202C1F88C2393F83C202E
:102B0000032A06D93C49D1F88C2322F03002C1F8BF
:102B10008C2393F83C30032B06D9374AD2F88C33F8
:102B200043F00043C2F88C33344B1B6893F83C20CD
:102B3000042A06D93049D1F8902322F00F02C1F8B7
:102B4000902393F83C20042A06D92B49D1F89023EE
:102B500022F03002C1F8902393F83C30042B06D9C0
:102B6000254AD2F8903343F00043C2F89033214A0B
:102B7000136823F4407313601F4BD3F80C2542F005
:102B80000042C3F80C25D3F80C2542F00102C3F82B
:102B90000C256421002003F0E5FE00F067F81B48D7
:102BA00000F032FB1A4800F02FFB1A4800F02CFB13
:102BB000194800F029FB194800F026FB184800F0DE
:102BC00023FB02B070BD174BE3E60520FFF7D8FDED
:102BD000E2E60420FFF7D4FD2DE70420FFF7D0FD47
:102BE0002FE70320FFF7CCFD4CE70320FFF7C8FDDC
:102BF00050E700BF0000274000002640D82F000803
:102C00009CAD0010400D0300C8AD0010B0AD001029
:102C1000B4AD0010B8AD0010BCAD0010C0AD0010D8
:102C2000C4AD001002004A0008B5044804F084F85E
:102C300008B1002008BD0248FCE700BFE022000800
:102C40000000020610B500F0DDFA0446FFF7C4FBF1
:102C50000CB1204610BDFFF7E7FF0446F9E708B5C1
:102C6000012002F019F908BD7047000030B4604B34
:102C7000D3F8802302F00F0202F1D00153F8213083
:102C800013F007031BD0042B1BD05A4B002A41D151
:102C9000574AD2F8900500F00100D2F88815C1F328
:102CA0000171D2F8882512F0405F19D0504AD2F84D
:102CB0008825C2F30172012A13D0002211E04E4B85
:102CC000E4E702F1C0034A4951F8233003F01F033F
:102CD000112B02D04FF4FA43D8E74FF40043D5E765
:102CE000012202B108B9032917D1414AD2F880154F
:102CF000C1F31101D2F88405C0F30C00D2F880258D
:102D0000C2F300620132B3FBF0F301FB03F3B3FB48
:102D1000F2F302E0013A012A33D9354AD2F880238E
:102D2000C2F30112D340354A1360354A9168C1F3AA
:102D30000721013141F208001258120E0132B3FB93
:102D4000F2F230480260B3FBF1F32F4A13602F4ACE
:102D5000136003F5742202F23F222D49A1FB0212F7
:102D6000C2F387422B490A7003F2E7332A4AA2FBD7
:102D700003239B09294A1360DB03294A136030BCF3
:102D800070471B4902F5C87051F8204004F0010457
:102D900002F5C07551F82500C0F3017051F82510F7
:102DA00011F0405F09D02946114D55F82110C1F3AB
:102DB0000171012902D0002100E0012101B10CB90B
:102DC0000328AAD10A4C02F5C07254F8221001F06F
:102DD0007F0154F82200C0F3042054F82220C2F3EB
:102DE000044201FB03F3B3FBF0F3B3FBF2F394E70C
:102DF0000000264000366E0100127A000023000811
:102E00000000204004230008FC2200080C230008D6
:102E100083DE1B4314230008D34D621010230008E7
:102E20000823000808B50C4801F0D2FCFFF71CFF8E
:102E3000FFF71CFF00221146032002F077F8074835
:102E400001F0F6FE064B1B6893F84D3003B908BD40
:102E5000044801F041FFFAE748B100106829000872
:102E6000D82F0008D0AD001008B5FFF7AEFA074A1A
:102E7000D2F8883043F47003C2F88830BFF34F8F24
:102E8000BFF36F8FFFF7A5FA08BD00BF00ED00E0AC
:102E9000F8B5EFF30587103F3FB20E2F06D8294B48
:102EA0001B689E6906EBC71600241DE0254B1B68B6
:102EB0009E69F9E701BE1CE001BE29E001BE36E0D3
:102EC000022102EBC703204A52F823201F4850F882
:102ED00023009047082D31D87369012303FA05F5C3
:102EE000756173690134E4B2072C29D82546082C92
:102EF000E0D8F369EB4013F0010FF3D0224604EB66
:102F0000C703114951F82330002BE3D0082DD3D843
:102F10000C4B1B6893F878309B596900CB4003F049
:102F20000303D9B2013B012BCBD9082DC6D8336995
:102F3000EB4013F0010FC3D00121C2E701BECBE784
:102F4000F8BD00BFD82F0008C82C0008E82A0008E8
:102F5000072811D8DFE800F004041306080A0C0E55
:102F600008200DE00B200BE00C2009E00D2007E00D
:102F70000E2005E00F2003E001BE082000E00A203B
:102F8000012900D0704700F00700FBE72DE9F0436E
:102F900087B00446884617461E4608238DF8083039
:102FA00005148DF809508DF80A00029BADF8143015
:102FB0001B0C8DF81630059BADF810301B0C8DF8EE
:102FC0001230049BADF80C301B0C8DF80E3003A8AA
:102FD00000F01AF9814618B1484607B0BDE8F08301
:102FE00041463846FFF7B4FF0246EDB20E2D0BD82E
:102FF000074B1B68986900EBC5100023009333460C
:10300000E1B201F07FFDE7E7014B1B689869F4E747
:10301000D82F000870B504460E461546FFF7D5F9BF
:10302000C4F30743DB0053FA84F4044B43F82460F1
:10303000034B43F82450FFF7CCF970BDC82C0008AF
:10304000E82A00082DE9F04182B00614F4B20E2CF3
:103050004AD8304D2D68AF6907EBC417C0B20828B5
:1030600000D901BE032900D901BE4FEA4008294D0D
:103070002D6895F878E05EF807504FF0030C0CFAD5
:1030800008FC25EA0C0501F0030101FA08F12943C7
:103090004EF807100E2C2BD81E4909688D6905EBD8
:1030A000C415082800D901BEA9690127874021EA73
:1030B000070103FA00F00843A86121B2C6F34216E3
:1030C000154B53F8263004F01F05EB4013F0010FA9
:1030D00012D05201D2B204F1604404F5614484F884
:1030E000002302B0BDE8F0810A4D2D68AF69B5E755
:1030F000084909688D69D4E7ADF8001001920749C5
:10310000684603F06BFB012303FA05F5024B43F815
:103110002650E6E7D82F000800E100E0912E0010CD
:10312000F0B4304C34F81060441C152C16D8E4B2BE
:103130002C4D35F81450012484402B4F3C4247D08D
:10314000841E112C13D8DFE804F015121712120C8C
:103150000E12121212121212121212104FF48B755A
:10316000E9E7224C09E0224C07E0224C05E001BED1
:103170001D802FE0204C00E0204C1D8054B302380D
:10318000112812D8DFE800F009111411110B0D11EC
:103190001111111111111111110F012709E003274C
:1031A00007E0102705E0022703E001BE002700E04A
:1031B0000427B9420ED2605C304412FA80F21A80C1
:1031C0004A1CBA4206DA21444D783544ADB201E0DA
:1031D0000E441E801B88AB4202D20020F0BC704718
:1031E0000748FBE728AE00109401080010AE00105D
:1031F00014AE001024AE001008AE00100CAE00108B
:103200000000020400207047F0B583B00446FFF7C9
:10321000DCF806460DF10603A27861782078FFF706
:103220007FFF054670B9BDF80630C3F3C70203F04F
:1032300007031549895C012202FA03F3194214BFFE
:103240001746002705B9EFB92DB13046FFF7C1F891
:10325000284603B0F0BD0DF10603A278617820780E
:10326000FFF75EFF05460028EFD1BDF80630C3F337
:10327000C70103F00703044801229A40435C13434B
:103280004354E2E7014DE0E7A82E000801000204E4
:1032900030B583B00446FFF798F805460DF10603F4
:1032A000A27861782078FFF73BFF014660B9BDF84E
:1032B0000630C3F3C70003F00703074C01229A400E
:1032C000235C23EA0203235401B101BE2846FFF721
:1032D00080F803B030BD00BFA82E00082DE9F047EC
:1032E00082B007468A46504B33F81030421C152AEC
:1032F00017D8D2B24C4931F812804FF0010909FABF
:1033000007F929F07F4929F4770929F47E4929F042
:103310006B09A8EB03081FFA88F800242646254607
:1033200041E04FF48B78E8E78AF800708AF80150A2
:103330008AF8026073E03D4A09E03D4A07E03D4AF1
:1033400005E03D4A03E001BE002200E03B4ABB1E0F
:10335000112B12D8DFE803F009111411110B0D1114
:103360001111111111111111110F012309E0032382
:1033700007E0102305E0022303E001BE002300E084
:103380000423691C994204DA2A445278631C9A4245
:1033900002D00136F6B204E0CDB2002601E00135DC
:1033A000EDB20134A4B2444538D28DF804708DF8E2
:1033B00005508DF8066001A8FFF726FF0346002898
:1033C000B2D0B9F1000FEAD0BB1E112BBBD801A2BD
:1033D00052F823F037330010473300104D330010FC
:1033E00047330010473300103B3300103F330010C9
:1033F00047330010473300104733001047330010A5
:103400004733001047330010473300104733001094
:10341000473300104733001043330010084B184661
:1034200002B0BDE8F08700BF28AE001008AE001063
:1034300010AE001014AE001024AE00100CAE001040
:10344000020002042DE9F04782B081460D461AB110
:103450004FF0030A144F1BE08A46FBE70134AFB17B
:10346000A04513DD04238DF804308DF80550E6B235
:103470008DF806600DEB0300FFF7C6FE0028EDD1C6
:1034800089F8005089F801600027E7E70135EDB2BF
:1034900037B1554504D8054B13F805800024DEE705
:1034A000384602B0BDE8F0870200020404AE001006
:1034B00000B583B004238DF8043003788DF805300F
:1034C00043788DF8063001A8FFF7E2FE03B05DF8FF
:1034D00004FB000070B582B00568C5F307430E2BEE
:1034E00016D8154A1268966906EBC3160489230A92
:1034F000E4B2EDB20093012322462946304601F0A2
:1035000001FB0A2C08D00B2C0ED0002002B070BD9D
:10351000094B1B689E69E9E7072D00D901BE01230D
:1035200003FA05F5B560F0E7072D00D901BE0123C8
:1035300003FA05F57560E8E7D82F000810B582B0EA
:103540000146C0F307430E2B0CD9094B1B68986941
:103550000024009401230822C9B201F0D3FA2046C6
:1035600002B010BD024A1268906900EBC310EFE789
:10357000D82F0008123820282AD8DFE800F01F29A9
:1035800029292929292929292929292929292929AB
:10359000292929112C131517191B1D212325270053
:1035A00000207047022070470320704704207047B6
:1035B0000520704706207047072070470820704795
:1035C000092070470A2070470B2070470C20704775
:1035D00001BE0020704701207047000038B5EFF3AE
:1035E0000581103989B208B2002301E00133DBB252
:1035F000012B10D8174A02EB0312927B9042F5DBA5
:10360000144C04EB0314247B1444A042EEDACCB235
:10361000A41AE4B200E00024012B01D901BE38BD98
:103620000C4A1B01D118D5584B7B23440A4A52F847
:10363000232013682BB105EB8411D1F830115068A9
:10364000984705EB84140323C4F83031D4F83031A3
:10365000E5E700BFA4AE0010CC2E00084278074B6F
:1036600003EB02135B7B82781344DBB2044A42F81B
:10367000231000230B604B60704700BFA4AE001006
:10368000CC2E00082DE9F04182B005468846174649
:1036900043781B4E06EB03135C7B83781C44E4B237
:1036A000FEF793FE174B53F82430C3F800805F6099
:1036B000FEF78FFE6B7806EB0316B47BAB781C44E9
:1036C00025B26A09104B53F8223004F01F02D34090
:1036D00013F0010F10D1ADF80050072301930B49EF
:1036E000684603F07BF804F01F046D09012303FA18
:1036F00004F4054B43F8254002B0BDE8F08100BF5B
:10370000A4AE0010CC2E000800E100E0DD35001072
:10371000F0B49DF810608D7800EB8514D4F8384132
:103720003EB122EA040700EB8515C5F83071D5F8E3
:1037300030518D78B6B1144300EB8510C0F8384194
:1037400048780A4A02EB0012927B89780A4412B246
:103750005B01DBB202F1604202F5614282F80033A4
:10376000F0BC704724EA0204E6E700BFA4AE0010F4
:1037700038B5044628B361792D4A02EB0112927BD9
:10378000A1790A4411B202F01F024909012000FA8E
:1037900002F22031274840F82120BFF34F8FBFF3BA
:1037A0006F8F226862B1A17901238B405360201D85
:1037B000FFF76EFD0023236016232371A37B13B94B
:1037C00038BD01BED7E7237B627B032B2AD80BB918
:1037D000072A06D9012B1FD0022B20D0032B23D17F
:1037E00022BB1549096891F86D50AB400320A840F1
:1037F000034091F86C0002408968134343F0804312
:10380000C1F80034002303B101BE04F10C00FFF73E
:103810004FFE0023A373D3E70F2AE2D9DCE7032A84
:10382000DFD9DBE7054BEEE7044BECE7034BEAE7B8
:10383000A4AE001000E100E0D82F000801004A000B
:1038400070B594B0427D0B789A4239D00D4604464B
:103850004C22304901A804F005FC6B680193AB6869
:1038600006932B7883F001030393AB78002B48D0A9
:10387000002305936B78012B47D0022B43D0002304
:1038800004932068A17900EB8113D3F8386101AA71
:1038900003F02EFC01AAA179206803F09FFB2368A6
:1038A000A27903EB8213C3F83861034628B92A785A
:1038B00062756A782275AA78A275184614B070BD30
:1038C000027D4B789A42C1D1827D8B789A42BDD1DC
:1038D00003688479CA6803EB8413C3F8082103687A
:1038E00084794A6803EB8413C3F814218B7873B18D
:1038F000036880798A6803EB8013C3F80C210023E6
:10390000DBE70223B5E70323BAE70123B8E7002387
:10391000D3E700BFC4AE0010827B002A00F0AC8069
:10392000F8B50C460546002002F066FE564B1B68B3
:103930001A68D3F88030D3581B0E013300EB5300C4
:10394000B0FBF3F3B3FBF4F4002C00F097802A7B78
:10395000697B631E002A5CD1072977D8FF2B77D8B3
:10396000494A12689068B2F87020104450F821203B
:1039700022F47F421B029BB2134340F82130002106
:1039800000297DD12B7B6E7B032B6FD80BB9072EC3
:1039900007D9012B64D0022B65D0032B68D1002EF0
:1039A00068D1394A106890F86F20032707FA02F2AD
:1039B00090F86CE090F86EC00EFA0CFC42EA0C0233
:1039C00090F86DC003FA0CF307FA0CF73B40134371
:1039D00006EA0E068268334343F00043C2F800341F
:1039E0008368D3F8003400294CD1002002F004FE93
:1039F000254B1B681A68D3F88030D3581B0E01334F
:103A000000EB5300B0FBF3F3B3FBF4F42C610020A4
:103A100035E0012A1ED10F291ED8B3F5803F1DD2F3
:103A2000194A12689068B2F87220104450F82120A8
:103A300022F47F0222F47F421B0223F07F4323F013
:103A4000FF03134340F82130002199E70F4997E71E
:103A50000E4995E70D4993E70C4991E70B498FE72C
:103A60000F2E9ED997E7032E9BD996E70749BAE711
:103A70000649B8E70549B6E7054870470548F8BD67
:103A80000448FCE70348FAE7D82F000801004A0081
:103A900003005204010052042DE9F041044630B104
:103AA000B1F1FF3F05D0794D2846BDE8F08101BE58
:103AB000F6E7164604F1040841461320FFF70EFC12
:103AC00005460028F0D16379714A1B01D118D358FB
:103AD00023600F79A3791F44FFB2002E73D033887F
:103AE000A381A07302F088FD6A4B1B681A68D3F8A3
:103AF0008030D3581B0E013300EB5300B0FBF3F3BF
:103B0000217B627B012900D901BE00293FD1072A10
:103B100000D901BE5F4908688168B0F870000144AF
:103B200051F82220C2F307220132B3FBF2F22261E4
:103B300033787178574A126892F83D0087423AD23A
:103B4000032B3AD80BB9072907D9012B2DD0022B0B
:103B50002ED0032B33D1002933D192F86D60B340BE
:103B60000320B040034092F86C00014092680B4380
:103B700007F5407742F827300023002B72D1002D43
:103B800069D0002D70D02046FFF7F2FD8CE70F2A98
:103B900000D901BE3F4908688168B0F8720001444D
:103BA00051F82220C2F30F22BEE70F29D5D9CEE764
:103BB0000329D2D9CDE7384BDFE7374BDDE7364B6A
:103BC000DBE7354BD9E70022012104F10C00FFF7B8
:103BD00039FC05460028D2D10123A3732F49204682
:103BE000FFF79AFE05460028C9D1237B617B294A4D
:103BF000126892F83D00874225D2032B25D80BB9D5
:103C0000072906D9012B18D0022B19D0032B1ED15E
:103C1000F9B992F86D60B3400320B040034092F8C8
:103C20006C00014092680B4307F5407742F827305B
:103C30000023002BA3D01A4DA3E70F29E9D9E3E70E
:103C40000329E6D9E2E7144BF3E7134BF1E7124BF4
:103C5000EFE7114BEDE7134AA179206803F0BEF9B5
:103C600005468EE70E4D8CE704F118014046FFF73C
:103C7000F5FC2368A27903EB82130022C3F83821F4
:103C80002268A17901238B4093600DE70000520464
:103C9000A4AE0010D82F000801004A0040420F00D7
:103CA00001005204C4AE0010034630B11A6899797D
:103CB00001238B4013610020704701BEF6E7012805
:103CC00005D0022801D00020704703207047022051
:103CD00070470138032809D8DFE800F0020B04061A
:103CE00002207047062070470820704701BE02205E
:103CF000704704207047814206D8411A642303FBB1
:103D000001F1B1FBF0F07047091A642303FB01F1E4
:103D1000B1FBF0F07047000008B5EFF305801038F4
:103D200000B2FFF727FC044B53F8203003F11C01CD
:103D3000186802F043F808BDA42F000838B50546FE
:103D40000C46002002F058FC084B1B681A68D3F898
:103D50008030D3581B0E013300EB5300B0FBF3F05F
:103D600005FB0444B0FBF4F038BD00BFD82F0008B9
:103D700070B586B00546082422E005FB04F6002055
:103D800002F03AFC194B1B681A68D3F88030D358FC
:103D90001B0E013300EB5300B0FBF3F000EB5600B9
:103DA000B0FBF6F021460138FFF7C8FF0146284670
:103DB000FFF7A1FF06AB234403F8140C0134E4B26F
:103DC000102CDAD99DF80C100820034601E00133CD
:103DD000DBB2102B08D806AA1A4412F8142C8A4217
:103DE000F5D211461846F2E706B070BDD82F00088C
:103DF0002DE9F04182B00D464468234653F81C2B50
:103E000000920193684601F095FFE268B2F1FF3F2E
:103E10000DD0C2F307430E2B05D88E490968896976
:103E200001EBC31104E08B4B1B68996900E0002192
:103E30006369B3F1FF3F0DD0C3F307460E2E05D8DB
:103E4000844F3F68BF6907EBC61604E0814E3668B1
:103E5000B66900E00026022D00F09480082D00F0E5
:103E60009180012D02D002B0BDE8F0810028FAD186
:103E7000002933D0D2B2072A00D901BE754D2F6870
:103E8000BD694D1BED097F692D0107EB050C032A68
:103E900059D9171FDCF80450FF00FD4005F01F053D
:103EA00084F8BC50072A00D901BE012595408D60D9
:103EB000072A00D901BE674D2F68BD69491BC90992
:103EC0007D6909016F18032A43D9043A7968D20041
:103ED0001F2505FA02F221EA02027A60002EC2D002
:103EE000DBB2072B00D901BE5A4A11688A69B21A9F
:103EF000D209496912018D18032B34D9191F6A6838
:103F0000C900CA4002F01F0284F8BD20072B00D967
:103F100001BE01229A40B260072B00D901BE4D4A72
:103F200011688A69B61AF6094A6936019419032B91
:103F30001FD9043B6268DB001F2101FA03F322EA68
:103F4000030363608FE77D59D700FD4005F01F052F
:103F5000A6E76F58D2004FF01F0C0CFA02F227EAC6
:103F600002026A50BAE78A58D900CA4002F01F021A
:103F7000CAE79159DB001F2404FA03F321EA030383
:103F8000935170E719B3D5B294F8BC80072D00D9CE
:103F900001BE38F01F0200D001BE2E4A1268976998
:103FA000C91BC9095269090102EB010C032D33D960
:103FB000043DDCF80420ED001F21A94022EA0102A3
:103FC00008F01F0707FA05F51543CCF80450002E3A
:103FD0003FF449AFDBB294F8BD10072B00D901BE06
:103FE00031F01F0200D001BE1A4A1468A269B21A49
:103FF000D20964691201A518032B1ED9043B6A6813
:10400000DB001F249C4022EA040201F01F0101FA98
:1040100003F313436B6026E752F801C0ED004FF045
:104020001F0E0EFA05FE2CEA0E0C08F01F0707FA09
:1040300005F54CEA05055550C9E7A558DB001F26D4
:104040009E4025EA060501F01F0101FA03F32B4308
:10405000A35008E7D82F000810B5044678B3237999
:10406000162B19D062791F4B33F91230002B0CDB61
:1040700003F01F015B0901228A4020331A4941F8ED
:104080002320BFF34F8FBFF36F8F201DFFF700F981
:1040900004F1A00002F098FEA068B0F1FF3F10D13B
:1040A000E068B0F1FF3F0FD16069B0F1FF3F0ED182
:1040B0002069B0F1FF3F0DD1237E73B110BD01BE69
:1040C000CDE700F05DFBEBE700F05AFBECE700F01A
:1040D00057FBEDE700F054FBEEE704F11900FFF7A2
:1040E000E7F9EBE788AE001000E100E02DE9F041D0
:1040F00004460E4617460021006801F06FFD637EFE
:10410000A27E032B1CD80BB9072A08D9012B00F07B
:10411000AF80022B00F0B080032B11D182B9A749E8
:10412000096891F86D50AB400320A840034091F816
:104130006C0002408968134343F08043C1F80034A7
:104140003046FFF715FE0546A06506FB00F8002087
:1041500002F052FA994B1B681A68D3F88030D35892
:104160001B0E013300EB5300B0FBF3F000EB5800E3
:10417000B0FBF8F00138627E931EDBB2012B7FD9D1
:10418000A37E002A40F0DD80072B00F2F880FF2894
:1041900000F2F880894A12689168B2F870201144E0
:1041A00051F8232022F47F424FEA002C1FFA8CFCA6
:1041B00042EA0C0241F823204FF000082946FFF79D
:1041C000BDFD014607B138603046FFF794FD0A286F
:1041D00000F2E480637EA07E032B2CD80BB9072865
:1041E00008D9012B00F0DD80022B00F0DE80032BCC
:1041F00021D100BB714A116891F86F20032606FA9D
:1042000002F291F86C7091F86EC007FA0CFC42EA69
:104210000C0291F86DC003FA0CF306FA0CF6334069
:10422000134338408A68034343F00043C2F8003424
:104230008B68D3F8003494F87030002B00F0B9800C
:104240004FF48033E26D082A40F2B5800022134318
:10425000013D05F00F051D43236845F000751D6005
:104260002268136843F0004313604046BDE8F081C4
:104270000F2A7FF654AF4CE7032A7FF650AF4BE787
:10428000A37E022A24D0032A52D1002B53D1B0F1AD
:10429000807F53D2DFF824C1DCF800209168B2F8A7
:1042A0007620114451F82320D2B242EA002241F88C
:1042B0002320DCF800108A68B1F876100A4452F81E
:1042C000231021F0F80142F823104FF0000875E7A1
:1042D000032B27D8B0F5803F27D2DFF8E0E0DEF8E7
:1042E00000108A68B1F874C094445CF8232022F46A
:1042F0007F0222F47F42010221F07F4121F0FF0181
:104300000A434CF82320DEF800108A68B1F87410D4
:104310000A4452F8231021F0F80142F823104FF01C
:1043200000084BE7DFF8988048E7DFF8948045E71E
:10433000DFF88C8042E7DFF888803FE7DFF8808095
:104340003CE7012A21D10F2B22D8B0F5803F22D2A1
:104350001A4A11688A68B1F872C094445CF8232044
:1043600022F47F0222F47F42010221F07F4121F0FA
:10437000FF010A434CF823204FF000081EE7DFF846
:1043800040801BE7DFF8388018E7DFF8348015E756
:10439000DFF82C8012E7DFF828800FE7DFF82480B1
:1043A00018E70F287FF626AF1EE703287FF622AF17
:1043B0001DE7002346E74FF4006248E7D82F0008C6
:1043C00001004A00030059042DE9F04788B08846EF
:1043D00091469A46044630B316232371012323766F
:1043E0004FF0FF33A360E360236163611322B94997
:1043F000404600F0B4F906461322B749484600F09B
:10440000AEF90746002E00F06081002800F05F81C1
:104410007368597843685A78914206D0AF4D284660
:1044200008B0BDE8F08701BED6E71A889B78ADF8E2
:1044300008208DF80A3002A8FEF7E6FE054600289F
:10444000EDD1029BA3801B0CA37108238DF80030D3
:10445000C8F307438DF801308DF80280009BADF85A
:1044600014301B0C8DF81630059BADF810301B0C6A
:104470008DF81230049BADF80C301B0C8DF80E300B
:1044800003A8FEF7C1FE054608B9C4F80C80002D4C
:1044900000F09C806279924B53F8223023604DB932
:1044A000BAF1000F00F0B78001232376BAF800308C
:1044B000A4F81930002D00F0B880002D00F0EB803A
:1044C000002D00F0ED80002D79D104F15406854FC8
:1044D0000FCF0FC60FCF0FC60FCF0FC697E80F0035
:1044E00086E80F00109B002B00F0DF80109B1B68FC
:1044F000E365109B1879FFF7ECFB84F86100109BD3
:10450000187AFFF7DCFB84F8620004F11C063246DF
:1045100004F15401206801F0E3F9109BD96829B136
:104520003346109A1269206801F064FB2368C4F8CE
:104530009830C4F89C406C4BC4F8A030012384F838
:10454000A4300023C4F8A83004F19802C4F8AC20C9
:10455000C4F8B030C4F8B43004F1A00002F0ECFBB1
:1045600000B9624D0023C4F8C030C4F8C430C4F8A8
:10457000943062795E4B43F8224063795D4E36F9A0
:104580001330ADF80030072301935B49684602F011
:1045900025F9637936F91330002B07DB03F01F018F
:1045A0005B0901228A40554941F82320237E002BD4
:1045B00000F083802268136843F000431360002DED
:1045C0003FF42DAF2046FFF747FD28E708238DF87D
:1045D0000030C9F307438DF801308DF80290009B3D
:1045E000ADF81C301B0C8DF81E30079BADF8183051
:1045F0001B0C8DF81A30069BADF80C301B0C8DF897
:104600000E3003A8FEF700FE054600287FF442AFF7
:10461000C4F808903EE7002323760122114604F1F6
:104620001900FEF70FFF054644E76279637EA07E1E
:104630003349096891F83D50AA4224D2032B24D86B
:104640000BB9072806D9012B17D0022B18D0032B42
:104650001DD1F0B991F86DC003FA0CF3032505FAEA
:104660000CF52B4091F86C5028408968034302F503
:10467000407241F8223000251FE70F28EAD9E4E70D
:104680000328E7D9E3E71F4D17E71E4D15E71D4D3A
:1046900013E71C4D11E73846FEF71CFF05460FE7F0
:1046A0003046FEF717FF05460DE704F11C0204F142
:1046B0005401206801F014F938E700224FF4E13189
:1046C0002046FFF713FD054679E7044DA7E6034DA5
:1046D000A5E600BF64B0001080AF001000005A04CF
:1046E00054AE001010AF0010F13D001001005A044C
:1046F000A42F000888AE0010193D001000E100E072
:10470000D82F000801004A00F8B506460F461546A6
:104710000368D3F84033144602E03368D3F84033DB
:10472000B3F1FF3F07D1002DF7D03CB1012002F0DB
:1047300087F8013CF1E73B700020F8BD0048FCE73A
:1047400002005A0438B505460C46002003E0214615
:10475000286800F0AFFF0028F9D0002038BD70B401
:1047600006460023934208D203EB4305AC00081928
:104770000C59B44202D00133F4E7002070BC7047FA
:1047800010B584B00446FEF7D9FE00B101BE08237F
:104790008DF80030C4F307438DF801308DF80240E6
:1047A000009BADF80C301B0C8DF80E30039BADF860
:1047B00008301B0C8DF80A30029BADF804301B0C3E
:1047C0008DF8063001A8FEF763FD04B010BD0000AF
:1047D000014B1860704700BFD82F00081D4B98424E
:1047E0002FD00ED91C4B984231D019D91B4B98426F
:1047F00023D00133984222D0023B98421BD0184864
:10480000704740281FD006D980281ED0B0F5807F81
:10481000F5D11048704760B11028F0D111487047A9
:10482000B0F1204F05D0104B9842E8D14FF4A000D2
:104830007047002070470D4870470D4870470D487D
:104840007047044870470C4870470C4870474FF455
:10485000A400704706005200010000F0040000F0C0
:10486000FF00520001005000090000A001005200AA
:1048700002005200030052000200500005005200E6
:1048800010B5104B1B6893F82E30012B16D90D4B29
:104890001C68236AB4F8AC201344D4F8B020D35871
:1048A000002B0DDB084B1868FFF798FF63680122A7
:1048B0009A6063689B68002BFBD110BD01BEE6E7E0
:1048C0000248FAE7D82F00084C2F000802005000D9
:1048D000002800F00F81F0B50446002A00F00C819A
:1048E000072900D901BE1368012B00D901BE536806
:1048F00033F00F0300D001BE137A33F01F0300D052
:1049000001BED368032B00D901BE1369012B00D966
:1049100001BE5369012B00D901BE9369012B00D957
:1049200001BED369032B00D901BE136A012B00D944
:1049300001BE536A012B00D901BE936A012B00D935
:1049400001BED36A032B00D901BE136B072B00D91C
:1049500001BE1368072900D901BE012B00D901BE91
:10496000002B40F0B48001238B406360536807291B
:1049700000D901BE33F00F0000D001BE8F005F48A8
:10498000006890F8796030590F25BD4020EA050095
:1049900003F00F03BB4003433351107A072900D9BA
:1049A00001BE30F01F0300D001BE544B1D68AB693F
:1049B000E31ADB096D691B01EE18032940F28B80B5
:1049C0000B1F7568DB001F279F4025EA070500F0D5
:1049D0001F00984028437060D068082900D901BEA4
:1049E000032800D901BE4B00444D2D6895F878701E
:1049F0003D5903269E4025EA060500F00300984035
:104A0000284338511569082900D901BE012D00D964
:104A100001BEA069012606FA01F76FEA070C00EA59
:104A20000C0035408D400543A5615069072900D928
:104A300001BE012800D901BE304D2E6896F87AE0FB
:104A400054F80E6006EA0C0600F00100884030437E
:104A500044F80E0003F1100C032606FA0CF63E4350
:104A60002B6893F87B70E35923EA0606936903F0F9
:104A700001038B403343D06900F0030000FA0CF0CF
:104A80000343E3512B6893F87C00255825F0FF057C
:104A9000136A03F00103566A760006F002063343F8
:104AA000966AB60006F004063343D66AF60006F0AE
:104AB00018063343126B5201D2B21343890001F43A
:104AC0007E7103FA01F1294321500020F0BD01233A
:104AD0008B40A3604AE7EE584FEAC10C1F2707FA44
:104AE0000CF726EA070600F01F0000FA0CF030432E
:104AF000E85071E7024870470148E7E7D82F0008FF
:104B000001005A00F0B49DF81040072900D901BEF9
:104B100032F00F0500D001BE012B00D901BE34F0E8
:104B20001F0500D001BE056801268E4025EA060556
:104B300003F001038B402B4303601E4B1B6893F86B
:104B4000796033588F000F25BD4023EA050302F03A
:104B50000F02BA401A433250072900D901BE34F07F
:104B60001F0300D001BE134B1B689A69801AC0094D
:104B70005B6900011D1803290ED904396B68C9004F
:104B80001F228A4023EA020304F01F0404FA01F101
:104B900019436960F0BC70471A58C9001F258D4041
:104BA00022EA050204F01F0404FA01F1114319502E
:104BB000F0E700BFD82F0008084B1B68D3F8B030CF
:104BC0001B58002B07DA0B0C1B0403B101BE89B282
:104BD0004160002070470248704700BFD82F00088E
:104BE00001008A000368002B08DAC2600B0C1B046A
:104BF00003B101BE89B28160002070470048704750
:104C000001008A000A4651B1074B1B68D3F8B03047
:104C10001B58002B05DAC36813600020704701BEE3
:104C2000F2E70248704700BFD82F000801008A0051
:104C3000034B1B6803B17047014B1860FBE700BFD3
:104C4000602F0008F0B4049E214C2468002C3DD055
:104C50001F4C27682C2404FB00F03C18DDB23D50AB
:104C6000C3F3072060601B0CA3601A4B1B6893F80A
:104C70002E309D4200D301BE164B1B68186AB3F854
:104C8000AC7007FB05052561606893F82F309842EA
:104C900000D301BE0F4B1B681B6A803003EB40132F
:104CA0006361A568280C000400B101BE00B101BE1B
:104CB000A8B240EA05409860E26121620023A36146
:104CC00016B1B6F90030A381F0BC704701BEBFE752
:104CD000602F0008D82F0008F0B58FB004460028D8
:104CE00040D0A369072B00D901BEE36A002B3BD05B
:104CF000236B002B3AD007AD04F114060FCE0FC57D
:104D000037682F6002AD26460FCE0FC533682B6083
:104D1000174B1B689B8E079A1344ADF83030089BE5
:104D20000D93A26AE16A0CAD00953B460A98FFF725
:104D300089FF00210091069B0A460598FFF782FF34
:104D4000216B284601F04AFDBDF93030002B07DB0E
:104D500003F01F015B0901228A40064941F8232024
:104D60000FB0F0BD01BEBCE701BEC1E701BEC2E7A6
:104D7000D82F000800E100E0F0B416464AB31A4A02
:104D8000126842B3184A12682C2404FB002004FB6A
:104D900001214A68012404FA02F212044568AC4079
:104DA0000569D5B18F69D7B92D68002D19DA358815
:104DB0002A4332600269D66001228A614B6202692D
:104DC000230C1B0403B101BEA4B294600020F0BC0C
:104DD000704701BED3E701BED4E70448F7E70448B3
:104DE000F5E70348F3E700BF602F000804028A00DC
:104DF00007028A0070B582B000230193044628B3ED
:104E000023692BB363692BB3236A2BB36369DD6812
:104E10002A0C0BD02A0C12041A601B6820691D4B47
:104E20001B68D3F8B0301B58002B17DBADB24DB167
:104E300063691D601B68636A3BB398470023636224
:104E40000023A36163691B6802B070BD01BED7E790
:104E500001BED7E701BED7E701BED7E701A9FFF73B
:104E6000D1FE60B9019803681E0CDBB2E2699A4278
:104E700006D9226A52F8233013B1984700E0002681
:104E800031462069FFF798FED0E7A36A002BD7D000
:104E90009847D5E7D82F000808B5064B1B683BB1EB
:104EA000044B1B682C2202FB0030FFF7A3FF08BD58
:104EB00001BEF5E7602F0008184B1B6893F82E2001
:104EC000824223D921B30A6812F01F0F22D170B594
:104ED0000D461C6AB3F8AC3003FB0044104E34603E
:104EE000D2080021686803F0C8F800212046FFF7C7
:104EF00063FE2A4600213068FFF774FE60B9002186
:104F00003068FFF759FE40B1064806E00648704792
:104F10000548704704487047024870BDD82F000804
:104F2000642F000801018A0003018A0008B51346B6
:104F30004AB1E3B1E9B11A460B460F490B604A602A
:104F4000FFF7BAFF08BD0029F3D10C4B1B6893F89B
:104F50002E30984200D301BE084B1B681A6AB3F882
:104F6000AC3003FB0020064B18600020EAE7054840
:104F7000E8E70448E6E700BFA8280008D82F0008A3
:104F8000642F000803018A002DE9F041194B1B68CA
:104F9000DD682B6883422BD90C46460900F01F00C0
:104FA000012303FA00F851B10027124B1868036877
:104FB000002B08DB104DBCB12846BDE8F081FDF7A1
:104FC00004FA0746F1E76A6852F8263013EA080F38
:104FD00008D023EA080342F8263000250021FFF715
:104FE000EBFDE8E7054DF9E73846FDF7F2F9E3E7B1
:104FF000034DE1E7642F00080301880002018800E7
:1050000004018A000B4B1B68DB681A6882420ED9C8
:10501000410900F01F00012202FA00F05B6853F81A
:105020002130034201D104487047044870470448C6
:10503000704700BF642F000800018800010188004C
:1050400004018A00084B1B685B6CC34013F0010F1E
:1050500000D101BE044B1B681B6910308002185838
:1050600000F00F00704700BFD82F00082DE9F04373
:1050700003685F4EA6FB034C4FEA5C1C642707FBEA
:105080001C3C5C4CA4FB0C53DD0805EB850E4FEA81
:105090004E03ACEB030303EB051303F07F054368FA
:1050A000A6FB03C6760907FB1636A4FB0643DB08FE
:1050B00003EB83077C00341B04EB03131B0203F494
:1050C000FE432B43447B002C7BD0047B002C75D00B
:1050D00043F4001343F480038468454EA6FB045652
:1050E0007609642505FB1646424CA4FB0654E508E8
:1050F00005EB85077C00341B04EB0514240404F441
:10510000F814234304693A4EA6FB045E4FEA5E1E80
:105110004FF0640C0CFB1E4E364DA5FB0E74E708D9
:1051200007EB87084FEA4804AEEB040404EB0714CE
:10513000240604F0E06423434469A6FB047E4FEA9E
:105140005E1E0CFB1E4EA5FB0E74E70807EB8708DE
:105150004FEA4804AEEB040404EB071404F03F04E8
:105160008769A6FB07E84FEA58180CFB1878A5FBDF
:1051700008E74FEAD70E0EEB8E094FEA4907A8EB76
:10518000070707EB0E173F0207F4F8573C43C069C7
:10519000A6FB007676090CFB1606A5FB0650C50893
:1051A00005EB85077800301A00EB0510000400F4C9
:1051B0007F0004430B601460BDE8F08323F4001308
:1051C00088E784680A4EA6FB04567609642505FB29
:1051D0001646084CA4FB0654E50805EB85077C0041
:1051E000341B04EB0514240404F47C14234389E7E2
:1051F0001F85EB51CDCCCCCC30B583B000287CD012
:10520000034602683B2A00D901BE5A683B2A00D9EE
:1052100001BE9A68172A00D901BE1A69013A062A06
:1052200000D901BE9A69013A0B2A00D901BEDA6998
:10523000632A00D901BE9969DA6902F5FA62481E4B
:105240000B2800D901BE02B901BE2F4C205C0229F7
:1052500023D05A69002A52D0824252D8184601AA55
:105260006946FFF703FFFDF7B0F80546274B1B69BA
:1052700013F0010F30D1254B9B6813F0010F2DD196
:10528000224A936843F002039360002444B3284603
:10529000FDF79FF8204603B030BD02B901BE12F001
:1052A000030F07D11A49A1FB02414909642404FBF9
:1052B000112169B91649A1FB0241C9094FF4C8740B
:1052C00004FB112131B90122002AC2D00130C0E70C
:1052D0000122F9E70022F7E70E4CD7E70D4CD5E79E
:1052E0000A4B009A5A61019A9A619A6822F0020266
:1052F0009A603E2001F0BCFAC9E7074CCAE7064CA9
:10530000C8E7054CC6E700BFFCB10010000027400D
:105310001F85EB510300A2000100A20008B5FFF7B2
:105320006BFF08BD70B50446002857D0FDF74DF857
:105330000546374B1B6913F0010F04D1344B9B68B2
:1053400013F0020F4CD02846FDF743F8304B5A6952
:105350009B69C2F3021101EB8101480002F00F01C9
:1053600008442060110AC1F3021000EB80004500E0
:1053700001F00F0129446160C2F38051617300297B
:1053800037D1150CC5F3011101EB8101480005F07F
:105390000F052844A06000212173C2F3026222613C
:1053A000C3F3011202EB8202510003F00F02114419
:1053B0006161190AC1F3001290001044420001F02B
:1053C0000F010A44A2611B0CC3F3031202EB820219
:1053D000510003F00F030B44E36170BD01BEA5E76C
:1053E0000B4E0123B360B72001F042FA0023B360F3
:1053F000A9E7100CC0F300118D000D44690000F006
:105400000F000144A160C2F340512173C5E700BF02
:1054100000002740F0B40546002849D0002949D0B3
:10542000002D00F0B980002900F0B8800A685C4BBC
:10543000134003B101BE4A685A4B134003B101BE89
:105440008B6813F0FC2F00D001BECB6813F0FC2F4B
:1054500000D001BE0B7D032B00D901BE8B69B3F5D3
:10546000803F00D301BECB6D072B00D901BE0B6E70
:10547000B3F5803F00D301BE4B6EB3F5803F00D340
:1054800001BE4B6843F000436B608B682B61CB68B7
:105490006B610B69AB610B7D9B07EB618B692B62C9
:1054A0000E6806F460664F68C7F38007002215E0B7
:1054B00001BEB3E701BEB3E73B4B002423F8104025
:1054C0004C6F04F11C7303F58033640093FBF4F319
:1054D0001BB2364C44F820300132D2B20F2A1FD80A
:1054E0001046931D01EB83035C68314B234003B1ED
:1054F00001BE831D01EB83035C6800F1200C45F8BD
:105500002C405B6813F0012FD6D1B6F5606FD3D174
:10551000002FD1D0244B4FF4784423F81040CFE72C
:10552000CB6DC5F81832CB6DC5F810320B6EC5F8CF
:1055300028320B6EC5F820324B6EC5F838324B6EF0
:10554000C5F8303291F87030ABB18B6EB3F1804F4B
:1055500000D301BECB6E23F44F0323F0FF0303B14E
:1055600001BE6FF04043C5F804338B6EC5F80033BD
:10557000CB6EC5F84433D5F8003F3F2B02D0D5F8A9
:10558000003F13B90B23C5F8003F0B6843F4001329
:105590002B600020F0BC70470648FBE70548F9E7A0
:1055A0000811DF0001FE3020DC2F0008FC2F00086E
:1055B00088CA887E0100060008B50368002B0ADB54
:1055C000D0F8A032002BFBDB036843F000430360FC
:1055D000022001F04DF908BD012900D901BE0129C1
:1055E00002D0012343627047436843F48033436031
:1055F00070470000012900D901BED0F8103203F035
:105600000103012904D00C4A6BB99AB90B487047C1
:10561000094A002BF8D1002AF6D0D0F8103203F056
:105620000103013AF5E70123C0F81032D0F8103237
:10563000002070470248704755555501020006008A
:10564000030006000F2900D901BE0F2905D86031DB
:1056500050F8210080B200B270470020FBE710B480
:10566000D0F8003303F00F03072B0AD900230FE013
:10567000D0F84043CC5401339342F9D35DF8044B46
:1056800070470023F8E7D0F8404321F81340013376
:105690009342F8D3F2E710B51446D0F80833C3F3B9
:1056A00008039A4204D22246FFF7D9FF204610BDD4
:1056B0001C46F8E7036813F4006F0AD08022D0F884
:1056C0000832C3F30803934205D0C0F8401201200A
:1056D00070474022F3E70020704710B4D0F8003242
:1056E00003F00F03072B0AD900230FE0CC5CC0F8AE
:1056F000404201339342F9D35DF8044B70470023D5
:10570000F8E731F81340C0F8404201339342F8D330
:10571000F2E710B51446036813F4006F0CD0802331
:10572000D0F80822C2F308029B1AA34206D92246E7
:10573000FFF7D3FF204610BD4023F1E71C46F6E7F4
:10574000036813F4006F07D080235B08026D12F02A
:10575000FF0203D1184670474023F6E71346F9E7E6
:1057600070B505460C46FFF7EBFF0646A169E269F6
:1057700001B102B901BE2846FFF78DFF236A034439
:105780002362E3691B1AE3614BBBA3681BB3E368A5
:10579000B3421CD3013E2B6813F4006F19D0802351
:1057A0009E4200D301BED5F8043323F0FF03F6B2C6
:1057B0001E43C5F804630123C5F8C83F636823F09E
:1057C00001036360236B0BB10420984770BD5E1E1C
:1057D000E1E74023E4E70023C5F8C83FEEE7A2690C
:1057E000D5F8001301F00F01072900D9400010443B
:1057F000A061B342EAD2013B2A6812F4006F0CD0D8
:105800008022934200D301BED5F8042322F0FF0288
:10581000DBB21343C5F80433D8E74022F1E72DE9A2
:10582000F04105460C46036813F4006F27D080272B
:10583000D5F8006206F00F06A26A012A14D9D4F83E
:105840002480E262013AB8F1000F00D002B901BE33
:1058500041462846FFF75DFFA36A1B1AA362072E85
:1058600000D9400040446062D5F80832C3F3080311
:105870009F4202D0A36A012B03D0BDE8F0814027EC
:10588000D6E70023A362072E27D8636A1E78FCF7A9
:105890009CFDC5F840624FF40073C5F8803FD5F811
:1058A000803FFCF796FDD5F8883F23F4007222F084
:1058B000010242F4007223F4EE6323F0030303B108
:1058C00001BEC5F8882F236843F002032360236BD1
:1058D000002BD2D001209847CFE7636A1E88D6E715
:1058E000002800F071810346002900F06F8130B478
:1058F0000878022800D901BE487B0238C0B20628C9
:1059000000D901BE887B20B1022802D0032800D034
:1059100001BE91F82100012800D901BE91F82800AC
:10592000012800D901BE087801280AD9887F0028FB
:1059300000F09A8048680138062800F2978000201D
:1059400005E048680838082894BF0020012000B10D
:1059500001BE88680538042800D901BE4869FF28BF
:1059600000D901BE8869FF2800D901BE887C28B112
:10597000087810B9886809287AD001BE486B20F4ED
:10598000366020F00D0000B101BEC86B20F4EE605F
:1059900020F0030000B101BE087802286CD04C68EA
:1059A000013C087F00286CD04FF480308D68082DB2
:1059B00069D84FF40065284304F00F04204340F0F9
:1059C00000701860086B1C6814F4006F5DD08024B0
:1059D000A04200D301BE886B1C6814F4006F56D03F
:1059E0008024A04200D301BE486A1C6814F4006FF2
:1059F0004FD08024A04200D301BE0878000600F0FA
:105A000040701864487F002845D040208C7C002CD2
:105A100043D04FF4806420430C7C002C3FD04FF4E3
:105A2000807420434C7C002C3BD04FF40074204306
:105A3000CC6A013C240404F4702420434C7B013CD8
:105A400004F0070420438C7B240104F0300420433D
:105A50009864087B38B34FF48070CC7B44BB0C78DF
:105A6000022C22D0002425E0002070E701206EE700
:105A7000887B002882D080E7887F00288FD100248F
:105A80008FE7002092E7002595E74024A0E7402417
:105A9000A7E74024AEE70020B8E70024BBE70024D6
:105AA000BFE70024C3E70020D7E74FF4007401E00C
:105AB0004FF4007404438868013800F00F0020435D
:105AC000C3F800030C7D8869000400F47F002043C4
:105AD000C3F81003CC6AD3F8000300F00F000330C2
:105AE000844201D3102C00D901BEC87F20B10878B0
:105AF000012859D0002400E00024487B013800F040
:105B0000070020438C7B240104F0300420435864B8
:105B1000087B00284BD04FF480748868013800F06F
:105B20000F0020430C78012C43D000242043C3F8FD
:105B3000000291F83000C3F8040391F82000002817
:105B40003AD04FF0007091F82140012C36D000245B
:105B5000204391F82840012C33D00024204391F8B1
:105B600024402043186591F83800C3F80402486BBC
:105B700020F4926020F002000005000DC3F8C80F69
:105B8000C96B21F08C014905490DC3F8881FFAB192
:105B90000020506010609060D0601062D06210638E
:105BA0000C4B536330BC70474FF48074A5E700245E
:105BB000B3E74FF48034B9E70020C4E74FF08074B6
:105BC000C6E74FF48034C9E703487047024870477E
:105BD0000020E7E7EFCDAB000160AA00036823F0E7
:105BE0000043036021B100224A600A600A62CA626F
:105BF00070470000F8B51E4653B1756B184B9D42B7
:105C000000D001BE01B102B901BE01B112B9F8BDA7
:105C100001BEF2E714460D460746FFF791FDB56059
:105C2000F460002333617361844214D3421E3B68E5
:105C300013F4006F11D080239A4200D301BED7F82D
:105C4000044324F0FF04D2B22243C7F80423012303
:105C5000C7F8C83FDBE7621EE9E74023ECE700BF77
:105C6000EFCDAB0008694B69834204D9CB694A691F
:105C70009B1A184470474B69C01A70472DE9F041D0
:105C800007460D46FFF75CFD8046D7F80863C6F36C
:105C900008062C6931E0002435E02B6B0BB108209D
:105CA00098476B69A34231D10023C7F8C83FECB1D4
:105CB000013C2C61EC6829463846FFF7D3FF201AD7
:105CC000804511D968B301383B6813F4006F2AD0BE
:105CD0008023984200D301BED7F8043323F0FF039A
:105CE000C0B21843C7F80403BDE8F081EC68013C7A
:105CF000DFE7AB6823F81420013E002ED9D0013431
:105D0000EB68A342C7D06B69A342C6D0D7F8402343
:105D1000D7F8003303F00F03072BEAD8AB681A5506
:105D2000EAE70020D0E74023D3E7486870470868D7
:105D30007047000038B504684568022928D0082952
:105D40002CD0012901D01C4827E029462046FFF726
:105D5000EEFF10F0010F27D129462046FFF7E5FF9F
:105D600010F0010F22D1D4F80832C3F30803D4F89D
:105D70000822C2F3C032D3421AD1D4F80833C3F395
:105D80000803BBB929462046FFF728FF002004E09E
:105D9000236843F000432360002038BD236843F0AC
:105DA000004323600020F8E70348F6E70248F4E7E1
:105DB0000148F2E70048F0E7FF00420038B504462A
:105DC0000D46D0F8003E13F0080F3FD0D0F8CC3F7E
:105DD00013F448730AD04A681A434A60C0F8C03FB7
:105DE000D0F8C03F0B6B0BB110209847D4F8CC3FD4
:105DF00013F4006F09D06B6843F400636B604FF4D9
:105E00000063C4F8C03FD4F8C03FD4F8CC3F13F0CF
:105E1000010F0DD0EB69002B52D1AB681BB12946A5
:105E20002046FFF72BFF0123C4F8C03FD4F8C03F42
:105E3000D4F8CC3F13F0040F08D02B6B0BB14020EB
:105E400098470423C4F8C03FD4F8C03FD4F8003EBC
:105E500013F0040F33D0D4F88C3F13F4A0630AD0AE
:105E60002A681A432A60C4F8803FD4F8803F2B6B1D
:105E70000BB120209847D4F88C3F13F0010F24D1A8
:105E8000D4F88C3F13F4007F0BD00022C4F8882F85
:105E90002B6823F001032B60EA622B6B0BB102200D
:105EA0009847D4F88C3F13F0100F08D02B6B0BB130
:105EB000802098471023C4F8803FD4F8803F38BD35
:105EC00029462046FFF74CFCADE729462046FFF760
:105ED000A6FC0123C4F8803FD4F8803FD0E700003F
:105EE0000346002830D0002B30D01A78012A00D980
:105EF00001BEDA684AB1B2F1A04F06D0B2F1C04F8C
:105F000003D0B2F1E04F00D001BE9A6832B1B2F5D1
:105F1000801F03D0B2F5001F00D001BE5A681AB12D
:105F2000B2F5803F00D001BE1A7842F004025968F1
:105F30000A4399680A43DB681343054A1268D26929
:105F4000C2F8003E0020704701BECCE70148704710
:105F5000D82F000801005E00134B1B6893F83A30FD
:105F600083421DD9042904D9A1F580739BB2132B58
:105F700018D8FF2907D801F00701D0300B4B43F8A0
:105F800020100020704701F01F01084B00F1C002F3
:105F900043F82210D030042243F82020002070471C
:105FA0000348704702487047D82F00080000264079
:105FB00001004A000C4B1B6893F83A30834200D82A
:105FC00001BE00F1D003094A52F8233003F0070361
:105FD000042B01D018467047C03052F8203003F02F
:105FE0001F0343F48073F5E7D82F00080000264014
:105FF000034600286FD03B4AD2F88025002A6EDB8A
:106000001A68B2F5802F00D301BE1A68C2F31102DC
:10601000D979002961D04FF080710A433149C1F824
:1060200080259A88B2F5005F00D301BE1A89B2F5C7
:10603000007F00D301BE9A88C2F30C0218892A4956
:1060400001EA00410A432749C1F884259A7A0F2AB8
:1060500000D901BEDA7A0F2A00D901BE9A89B2F5B9
:10606000005F00D301BE9A7A02F00F02D97A0901CB
:10607000C9B20A4398891D4901EA00210A43997B64
:10608000090701F040510A431649C1F888259A7959
:10609000042A00D901BE1A8AB2F5007F00D301BEDE
:1060A0001048D0F88C2522F4E0629979090201F4B5
:1060B000E0610A43C0F88C25D0F88C2522F0FF72ED
:1060C00022F48032198A084B03EA01431A43C0F8CC
:1060D0008C250020704701BE8DE700219DE7044814
:1060E000704700BF000026400000FF0100FF1F00B6
:1060F00003004A00034638B31449D1F88025C2F39F
:1061000011001860C2F30062DA71D1F88425C2F37D
:106110000C009880C2F308421A81D1F8882502F059
:106120000F009872C2F30310D872C2F30C2098814A
:10613000C2F301729A73D1F88C25C2F302219971CE
:10614000C2F308421A82704701BED5E7000026401C
:1061500038B505462D4AD2F88C3543F00043C2F8D5
:106160008C35044603E0012000F082FB013C274B04
:10617000D3F8903513F0040F01D1002CF3D1234A4A
:10618000D2F8883523F0405343F00053C2F88835E5
:1061900005B15CB11D4AD2F8803543F00043C2F826
:1061A000803503E0012000F063FB013C174BD3F87E
:1061B000903513F0010F01D1002CF3D105B154B18A
:1061C000124AD2F8883543F04053C2F88835C5B139
:1061D000CCB1002016E00D4BD3F8882522F04052B8
:1061E00042F00052C3F88825D3F8802522F00042FF
:1061F000C3F88025D3F88C2522F00042C3F88C2503
:10620000E5E7002038BD0248FCE700BF000026405B
:1062100002004A002F4B1B6893F83B3083424AD35D
:106220000138834200D801BE00F5C0732A4A52F8F3
:106230002330002B41DB8A78931EDBB20E2B3ED835
:106240004B78002B3DD0122B3DD870B40C78CD7814
:106250006DB31326B44238D35DB33826B44236D872
:106260000E79022E12D004F07F041B0203F4F853BF
:106270002343120402F4F8121A43ED0605F00065F8
:106280002A4300F5C073144C44F82320124C00F547
:10629000C07054F8203023F040530A79120702F0FE
:1062A0004052134344F82030002070BC704716263B
:1062B000D0E77026D2E70948704709487047074879
:1062C000704706487047054870470448EDE70348A3
:1062D000EBE700BFD82F00080000264001004A006D
:1062E00003004A0001380F4B1B6893F83B30834290
:1062F00015D900F5C0700C4B53F8203003F07F0225
:106300000A70C3F304224A70C3F304428A70C3F3D1
:10631000C062CA70C3F301730B7100207047034859
:10632000704700BFD82F00080000264001004A0037
:1063300070B5451E144B1B6893F83B30AB421DD91A
:106340000E46124A05F5C07152F8213043F0004361
:1063500042F82130344603E0012000F089FA013C84
:1063600005F5C873094A52F8233013F0010F01D123
:10637000002CF1D126B12CB1002002E0044800E04D
:10638000002070BD0348FCE7D82F0008000026401D
:1063900001004A0002004A00F8B50139072900F25D
:1063A0001581DFE811F00800120013011700130136
:1063B000130113018300874B1B78002B40F00881E9
:1063C000854B01221A70002502E00025824B1D70CA
:1063D0002846F8BD0024814B1C80814B1C800BE0BB
:1063E000621E934200D801BE02F5C0727D4B53F885
:1063F0002230DB0F6BB901347B4B1B6893F83B30C9
:10640000A34251D3002CEBD1764BD3F88035DB0F70
:10641000F0E72046FFF7CEFD02280BD0002CEAD192
:10642000704AD2F8883523F0405343F00053C2F845
:106430008835E0E7A4B96B4AD2F8883523F0405399
:1064400043F00053C2F8883500212046FFF784FD51
:106450000123A3409BB2614A11880B431380CAE712
:10646000621E04F27F135F4951F8233013F0405F3E
:1064700007D002F5C07351F82330C3F30173012B29
:1064800006D10123A3409BB25549088803430B80E2
:10649000544902F5C07251F8223023F0405343F0C2
:1064A000005341F82230CFE7002591E74B4B1B8882
:1064B00053B94C4BD3F88035002BC0F283800025B4
:1064C000454B00221A7083E7484C464BD3F83035D1
:1064D00003F00303032B05D0424BD3F830350CB146
:1064E000013CF2E7002C57D1414DE9E7013C3D4B1F
:1064F000D3F8903513F0010F01D1002CF6D144B13F
:1065000086BB384AD2F8883543F04053C2F8883504
:1065100000250136344B1B6893F83B30B342CFD390
:106520000127B740BFB22D4B1B881F42F1D002217B
:106530003046FFF711FD002ED9D00AE003F5C873ED
:10654000284A52F8233013F0010FD8D1002CD6D0AE
:10655000013C731E244A126892F83B209342EDD30B
:1065600001BEEBE71E4B1B881F420AD01D4A06F2F4
:106570007F1152F8213023F0405342F8213000259A
:10658000C7E7184A06F27F1152F8213043F0405312
:1065900042F821300025BCE70026154DBAE7013B43
:1065A000104AD2F8902512F0010F01D1002BF6D13C
:1065B00053B10C4AD2F8883543F04053C2F88835BD
:1065C00000257DE7094BEBE7094D79E7094DFFE62B
:1065D000084DFDE66A2F0008762F0008682F000896
:1065E000742F000800002640D82F000840420F00FA
:1065F00002004200FF00420070B586B0634B1B688A
:1066000093F83C30984200D301BE00F1E003604AA9
:1066100052F82330C3F3011301269E405B4B1B68E5
:1066200093F83C30984200D301BEE030584B53F809
:10663000204004F00F042046FFF7BCFC022831D0B4
:106640000CD940F21113984245D040F213139842EE
:1066500049D0B0F5887F34D0002506E020B101286C
:10666000FAD14C4B1D6800E04B4D002C45D0474BF8
:106670001B6893F83B30A34260D200210A460C46C7
:106680000B464BB1A2FB012359084FEA3200E4FB51
:10669000050101F031FB054605EB5600B0FBF6F0B5
:1066A00006B070BD3A4BD3F8303503F00303032B2B
:1066B00004D0374BD3F830350025D6E7374B1D686B
:1066C000D3E7334BD3F80C35002B01DB0025CCE7A7
:1066D0004FF40045C9E7324B1D6915F00405C4D0DD
:1066E0004FF40045C1E72A4BD3F83C35002B01DBC2
:1066F0000025BAE74FF40045B7E700230193029362
:1067000003930493059301A8FFF7F4FC204BD3F8FF
:106710008035002B08DB0023019CBDF808209DF884
:106720000B1049B10221ACE79DF81230022B01D0C9
:106730000123F1E70023EFE70121A2E70023019302
:106740008DF8083001A92046FFF7CCFD013C0F4B26
:106750001B6893F83B309C4200D301BE04F5C07423
:106760000B4B53F82430002B07DB00239DF804402B
:106770009DF805209DF8061083E79DF80830022B50
:1067800001D00123F2E70023F0E700BFD82F000873
:1067900000002640702F000800127A006C2F0008BD
:1067A000000027400A4B9A680A4B9A4204D01030E6
:1067B000094B53F82000704739B100F11003054A26
:1067C00052F8230042F82310704701BEF5E700BFDE
:1067D00000ED00E0002000080020001030B310B5EC
:1067E00004464368072B00D901BEB4F90030626843
:1067F000002B0EDB5201D2B203F1604303F561437B
:1068000083F800230A4B9A680A4B9A4208D000206A
:1068100010BD03F00F035201D2B20748C254F1E792
:10682000B4F90000FFF7BEFF0020F1E7034870470E
:1068300000ED00E00020000814ED00E0010056002B
:1068400010B5044605E0084B1868FBF7B5FDA4F544
:106850000044B4F5004FF6D8044B186800FB04F070
:10686000FBF7AAFD10BD00BF082300081023000895
:1068700008B5034B1B7800FB03F0FBF79DFD08BD3B
:1068800014230008054B4FF000429A649B6C002BC8
:1068900001DB002070470248704700BF000027401E
:1068A00003004600044BD3F800085B6813F0FF0FA9
:1068B00001D040F48020704700002640FEE7000031
:1068C00008B50268254BDA6142681A6282685A622A
:1068D000C2689A620269DA6242691A6382695A631B
:1068E000C2699A631E4A916AD963D16A1964516A6E
:1068F0005964516B9964926BDA64F1EE103A13F0BB
:10690000900F27D0026A154B1A65426A5A65826A4F
:106910009A65C26ADA65026B1A66426B5A66826BC6
:106920009A66C26BDA66026C1A67426C5A67826CAE
:106930009A67C26CDA67026DC3F88020426DC3F8B3
:106940008420826DC3F88820C26DC3F88C20026E4B
:10695000C3F89020FFF7B2FF08BD00BFB0280008C1
:1069600000ED00E070B4044600282ED019232F4813
